:100000000C946D000C9495000C9495000C94950044
:100010000C9495000C9495000C9495000C9495000C
:100020000C9495000C9495000C9495000C949500FC
:100030000C9495000C9495000C9495000C949500EC
:100040000C946F030C9495000C94DF030C94B9038B
:100050000C9495000C9495000C9495000C949500CC
:100060000C9495000C9495007307EC07B6079E0757
:10007000340734076D0734076D0734076D076D07C4
:100080006D0734076D076D070000000800020100CE
:100090000003040700000000000000000000000052
:1000A000250028002B0000000000240027002A0063
:1000B000040404040404040402020202020203030E
:1000C0000303030301020408102040800102040816
:1000D0001020010204081020110411241FBECFEFCC
:1000E000D8E0DEBFCDBF11E0A0E0B1E0EEE2F2E18A
:1000F00002C005900D92A231B107D9F722E0A2E12A
:10010000B1E001C01D92AB38B207E1F710E0CDE6D7
:10011000D0E004C02197FE010E940A09CC36D10725
:10012000C9F70E94A1040C9415090C94000090E0FA
:10013000FC01EC53FF4F2491FC01E055FF4F8491EB
:10014000882399F090E0880F991FFC01EA55FF4F32
:10015000A591B491FC01E456FF4F859194918FB71E
:10016000F894EC91E22BEC938FBF0895CF92DF923D
:10017000EF92FF920F931F93CF93DF936C017A015D
:100180008B01C0E0D0E0CE15DF0589F0D8016D917C
:100190008D01D601ED91FC910190F081E02DC60119
:1001A0000995892B11F47E0102C02196ECCFC7017D
:1001B000DF91CF911F910F91FF90EF90DF90CF9043
:1001C0000895089580E090E00895FC01538D448DDA
:1001D000252F30E0842F90E0821B930B541710F0F2
:1001E000CF96089501970895FC01918D828D9817FF
:1001F00061F0828DDF01A80FB11D5D968C91928D0B
:100200009F5F9F73928F90E008958FEF9FEF089507
:10021000FC01918D828D981731F0828DE80FF11DD0
:10022000858D90E008958FEF9FEF0895FC01918DEB
:10023000228D892F90E0805C9F4F821B91098F73E4
:100240009927089583E391E00E94160121E0892B0C
:1002500009F420E0822F0895FC01848DDF01A80FAE
:10026000B11DA35ABF4F2C91848D90E001968F73DE
:100270009927848FA689B7892C93A089B1898C91FD
:1002800080648C93938D848D981306C00288F389C3
:10029000E02D80818F7D80830895EF92FF920F93F0
:1002A0001F93CF93DF93EC0181E0888F9B8D8C8D22
:1002B000981305C0E889F989808185FD24C0F62E50
:1002C0000B8D10E00F5F1F4F0F731127E02E8C8DE9
:1002D000E8120CC00FB607FCFACFE889F9898081D3
:1002E00085FFF5CFCE010E942C01F1CF8B8DFE0151
:1002F000E80FF11DE35AFF4FF0820B8FEA89FB896B
:100300008081806207C0EE89FF896083E889F9896E
:1003100080818064808381E090E0DF91CF911F91A4
:100320000F91FF90EF900895CF93DF93EC01888DAC
:100330008823C9F0EA89FB89808185FD05C0A889E9
:10034000B9898C9186FD0FC00FB607FCF5CF80816F
:1003500085FFF2CFA889B9898C9185FFEDCFCE01B9
:100360000E942C01E7CFDF91CF91089580E090E0CB
:10037000892B29F00E94220181110C94000008951C
:1003800090E0FC01E857FF4F3491FC01EC53FF4F24
:100390002491FC01E055FF4FE491EE2309F43BC0AA
:1003A000332339F1333091F038F43130A9F0323061
:1003B00001F584B58F7D12C0373091F03830A1F04F
:1003C0003430B9F4809180008F7D03C0809180002B
:1003D0008F77809380000DC084B58F7784BD09C06E
:1003E0008091B0008F7703C08091B0008F7D8093A3
:1003F000B000F0E0EE0FFF1FE456FF4FA591B4915F
:100400008FB7F894EC91611103C020952E2301C0A1
:100410002E2B2C938FBF08956D3F71053CF46A3FDE
:10042000710554F4683F710589F406C09B012E5F85
:1004300031092230310550F4DC018D919C91DC01B1
:10044000ED91FC910190F081E02D09940895EF92D7
:10045000FF921F93CF93DF931F92CDB7DEB77C013E
:10046000162F2150203108F04EC080E8E816F10424
:100470000CF449C0A1EEEA16F104ACF58091F40148
:100480009091F501DC01ED91FC916E2D622B0190B4
:10049000F081E02D498309958091F4019091F50157
:1004A000DC01ED91FC91612F6F770190F081E02DDF
:1004B0000995E894E4F84981B0ECEB16F10419F1E0
:1004C0008091F4019091F501DC01ED91FC91642F94
:1004D0006F770190F081E02D0F90DF91CF911F9108
:1004E000FF90EF900994C701885F9109089758F42D
:1004F000B70184EF91E00F90DF91CF911F91FF90B2
:10050000EF900C940C020F90DF91CF911F91FF9010
:10051000EF90089587FF0DC09CE0980F923048F04F
:10052000982F9B7F993F29F0803F08F4807F90E0CF
:10053000089580E090E008959C018F7C80389105BB
:1005400061F0203D310549F081E0203E310539F070
:10055000203C310521F080E0089581E00895089560
:1005600061E00C94C001603329F4809112019091F4
:10057000130129C0613329F4809114019091150170
:1005800022C0623329F480911601909117011BC09B
:10059000633329F4809118019091190114C06433D8
:1005A00029F480911A0190911B010DC0653329F443
:1005B00080911C0190911D0106C0663339F4809131
:1005C0001E0190911F010E94B0020895673329F423
:1005D00080912001909121011BC0683329F4809102
:1005E00022019091230114C0693329F480912401E0
:1005F000909125010DC06A3329F4809126019091D4
:10060000270106C06B3331F48091280190912901B4
:100610000C94B002089560E00C94C001603329F49A
:10062000809112019091130129C0613329F48091C6
:1006300014019091150122C0623329F480911601B2
:10064000909117011BC0633329F480911801909198
:10065000190114C0643329F480911A0190911B018F
:100660000DC0653329F480911C0190911D0106C0D5
:10067000663339F480911E0190911F010E940B0393
:100680000895673329F480912001909121011BC0C6
:10069000683329F4809122019091230114C06933B9
:1006A00029F480912401909125010DC06A3329F429
:1006B000809126019091270106C06B3331F480911F
:1006C0002801909129010C940B030895DC01ED9110
:1006D000FC910190F081E02D09940E9410091F9275
:1006E0000F920FB60F9211242F933F938F939F93E6
:1006F000AF93BF9380912F0190913001A091310170
:10070000B091320130912E0123E0230F2D3720F4D8
:100710000196A11DB11D05C026E8230F0296A11D5B
:10072000B11D20932E0180932F0190933001A0934F
:100730003101B093320180912A0190912B01A09157
:100740002C01B0912D010196A11DB11D80932A01AC
:1007500090932B01A0932C01B0932D01BF91AF91E9
:100760009F918F913F912F910F900FBE0F901F90EF
:1007700018951F920F920FB60F9211242F933F934B
:100780004F935F936F937F938F939F93AF93BF9399
:10079000EF93FF9383E391E00E942C01FF91EF918F
:1007A000BF91AF919F918F917F916F915F914F9189
:1007B0003F912F910F900FBE0F901F9018951F9291
:1007C0000F920FB60F9211242F938F939F93EF9355
:1007D000FF93E0914301F09144018081E091490150
:1007E000F0914A0182FD12C0908180914C018F5F8F
:1007F0008F7320914D01821751F0E0914C01F0E090
:10080000ED5CFE4F958F80934C0101C08081FF917C
:10081000EF919F918F912F910F900FBE0F901F908E
:100820001895CF93DF93A3E3B1E013961C921E9229
:10083000129748EE53E060E070E014964D935D939C
:100840006D937C93179784E091E011969C938E931F
:1008500085EC90E01D969C938E931C9784EC90E021
:100860001F969C938E931E9780EC90E051969C93DC
:100870008E93509781EC90E053969C938E93529771
:1008800082EC90E055969C938E93549786EC90E082
:1008900057969C938E93569759961C9259975A96B1
:1008A0001C925A975B961C925B975C961C925C9785
:1008B000E0EDF1E0B5A3A4A316A217A210A615A619
:1008C00014A617A616A68FEF9FEF91AB80AB93AB44
:1008D00082AB83E08093040215AA17AA16AA10AE71
:1008E00011AE10928A0280E8AAE0B2E0ED011992FE
:1008F0008A95E9F71182108213821282158214827E
:100900001782168211861086138612861586148623
:1009100017861686118A108A138A128A158A148AF3
:10092000178A168A118E108E138E128E158E148EC3
:10093000178E168E11A210A213A212A2DF91CF91D0
:100940000895CF93DF9300D01F92CDB7DEB7789490
:1009500084B5826084BD84B5816084BD85B58260C4
:1009600085BD85B5816085BD80916E008160809375
:100970006E001092810080918100826080938100DE
:1009800080918100816080938100809180008160EE
:10099000809380008091B10084608093B100809149
:1009A000B00081608093B00080917A008460809371
:1009B0007A0080917A00826080937A0080917A0038
:1009C000816080937A0080917A00806880937A00B9
:1009D0001092C10087E00E949700E091F401F0912D
:1009E000F501A089B18982E08C93A485B5851C921C
:1009F000A685B7858FE38C93108EA489B58986E090
:100A00008C93A289B3898C9180618C93A289B389DC
:100A10008C9188608C93A289B3898C9180688C9327
:100A20000288F389E02D80818F7D808381E080932F
:100A3000F6011092F8011092F7011092FF01109246
:100A4000FE011092FD011092FC018FEF9FEF909339
:100A5000010280930002909303028093020210929D
:100A60008A0210920702109206021092050210925A
:100A700008021092090280910402817082608160F4
:100A80008093040283EB92E09093D3018093D20190
:100A90008EE093E09093D1018093D00102E111E0C8
:100AA00082E0E82EF12CD801ED92FD928D018E2D81
:100AB0000E949700BFEFEB1AFB0AE1E00A321E0723
:100AC00091F750E8C52ED12C11E067EF262E70EF7C
:100AD000472E512CE2E0AE2EB12CF3E08F2E912C5C
:100AE000A0EF3A2E66246394712C0091F601013137
:100AF00008F0BAC18091F4019091F501DC01ED910B
:100B0000FC910084F185E02D0995892B09F4ACC195
:100B10008091F4019091F501DC01ED91FC9102844A
:100B2000F385E02D0995BC018B7F893F09F49CC1B9
:100B30002091FE013091FF012115310509F0ADC072
:100B40006093F901F090F7018F2D69837A830E94F9
:100B50008A020E949C026981882351F067FD08C0C7
:100B6000F092F9016093FA017092FF016092FE0128
:100B7000F090F9018F2D0E948A02813F910509F4BE
:100B80005DC06CF5803B910509F45DC06CF4803963
:100B9000910509F458C0803A910509F454C0803891
:100BA000910509F0D3C04FC0803D910509F446C0BE
:100BB0002CF4803C910509F441C0C8C0803E9105E9
:100BC00009F441C0803F910509F0C0C0D092FD01F9
:100BD000C092FC011092F70130920A0238C0883F9F
:100BE0009105B9F044F4833F910541F164F1863FEA
:100BF000910579F0ABC08A3F91050CF4A7C08D3FF9
:100C000091053CF09C012E5F31092230310508F03E
:100C10009DC09093070280930602109205021092E5
:100C200008021092090210938A021092FF0110929A
:100C3000FE011092FD011092FC01F1C0B092FD0185
:100C4000A092FC0104C09092FD018092FC012091D1
:100C5000FE013091FF014091FC015091FD01415096
:100C600051092417350708F4D3C0909307028093E5
:100C700006028F2D8F708F5F809305028091FA019D
:100C800080930802109209021092FF011092FE0157
:100C90001092FD011092FC0121C067FF41C0CB0101
:100CA00099278D3F910554F48A3F91056CF4873F55
:100CB0009105B9F0883F910599F506C0AC014E5FEA
:100CC00051094230510560F5909307028093060266
:100CD00010920802109209021092050210938A02E3
:100CE0009EC080910A02803F89F5C9010196F901F1
:100CF000E053FE4F22AE50920702409206028093CC
:100D00000802909309021092050210938A02109231
:100D1000FF011092FE011092FD011092FC0175C0BE
:100D20008091F901F901E053FE4F803FD1F462AFA9
:100D30004091FC015091FD01CA0101972817390724
:100D400008F466C02091F901203F69F41092FF0178
:100D50001092FE011092FD011092FC011092F70119
:100D600083C061A7E5CF822F2B8349835A830E94DA
:100D70008A027C0190930702809306020E949C02E3
:100D80002B8149815A81882331F0822F8F708F5FA8
:100D90008093050202C0109205028091FA018093AF
:100DA00008024330510519F48091FB0101C080E035
:100DB000809309021092FF011092FE011092FD0132
:100DC0001092FC0110938A02B0EBEB16F104D1F003
:100DD0006CF4F0E9EF16F104A9F080EAE816F104EA
:100DE00089F0A0E8EA16F10481F40CC0B0EDEB162E
:100DF000F10441F0E0EEEE16F10421F0F0ECEF1614
:100E0000F10419F42093F7010AC01092F70107C00A
:100E10002F5F3F4F3093FF012093FE0125C080914B
:100E20000602909107028039910529F48091090208
:100E3000882309F4F5C080910602909107029C0175
:100E4000205831092136310508F0EFC02091050204
:100E5000201709F4EAC0002309F4E7C04091040216
:100E6000342F317040FD03C00E94B6013ECE842F66
:100E70008E7FD1F38091060290910702BC016058E9
:100E8000710961367105F8F420910502201719F0F7
:100E900031E0011130E0469550E04230510539F023
:100EA0004330510539F041305105F1F605C0332387
:100EB000D9F202C03111D8CF4091090260910802E5
:100EC0000E942702D1CFFC01E05FF109E031F1057A
:100ED00058F6EC5CFF4F0C940A09BC0184EF91E0DA
:100EE0000E940C02C1CF8091090290E0382F222786
:100EF00080910802282B2138310510F020E830E0DD
:100F0000E12CF12CE216F30609F4AECF8091F40146
:100F10009091F501DC01ED91FC91D701A053BE4FFA
:100F20000190F081E02DDA966C912B83398309953D
:100F3000BFEFEB1AFB0A39812B81E4CF0091080245
:100F40008091F4019091F501DC01ED91FC9101900B
:100F5000F081E02D63EF09950F77602F70E08091AD
:100F6000F4019091F5010E9466037ECF90910902F1
:100F7000B0E89B9F7001112480910802E82A8091BB
:100F8000F4019091F501DC01ED91FC910190F0816B
:100F9000E02D62EF09958091F4019091F501DC015B
:100FA000ED91FC91B7016F7777270190F081E02DEB
:100FB00009958091F4019091F501DC01ED91FC918E
:100FC000B701660F672F661F770B71956F777727CD
:100FD0000190F081E02D22C0809108028770B0E17D
:100FE0008B9FC0011124009109020F70082B809182
:100FF000F4019091F501DC01ED91FC910190F081FB
:10100000E02D61EF09958091F4019091F501DC01EB
:10101000ED91FC910190F081E02D602F099524CF96
:10102000D0920702C092060206CF813F9105C1F41B
:10103000E091E001F091E1010CC08B3F91050CF0D3
:10104000C8C0833F910509F0A5C0E091E401F0918B
:10105000E501309709F402CF809108020995FECE90
:10106000823F91050CF080C0803B9105C1F4E09176
:10107000D601F091D70108C08038910509F0EECE75
:10108000E091D001F091D101309709F4E7CE409181
:10109000090260910802809105020995DFCE813B2B
:1010A000910584F48039910529F4E091D201F09101
:1010B000D301EACF803A9105F9F6E091D401F0919D
:1010C000D501E2CF803D910529F4E091DA01F0915C
:1010D000DB010BC0813D91058CF4803C910509F04A
:1010E000BDCEE091D801F091D901309709F4B6CE88
:1010F00060910802809105020995B0CE803E91056D
:10110000B9F4E091DC01F091DD01309709F4A6CE4D
:10111000609109026F7720E8629FB00111248091ED
:1011200008028F77682B705280910502099596CE40
:10113000803F910509F092CEE091DE01F091DF0150
:10114000309709F48BCE6091090270E0762F662704
:1011500080910802682B6138710510F060E870E03A
:101160008AE092E009957ACE8A3F910509F065CF31
:10117000E091EA01F091EB0108C0883F910509F088
:101180006DCEE091E801F091E901309709F466CE67
:10119000099564CE833F9105A4F4E091E201F091BA
:1011A000E301309709F45ACE809109028F77A0E8C5
:1011B0008A9FC0011124209108022F77822B099564
:1011C0004DCE863F9105C9F6E091E601F091E70129
:1011D000DCCF8C3F910529F4E091EE01F091EF0115
:1011E000D4CF8C3F91052CF4E091EC01F091ED010E
:1011F000CCCF8E3F910529F4E091F001F091F101FF
:10120000C4CF8F3F910509F029CEE091F201F09112
:10121000F301BBCFEE0FFF1F0590F491E02D099471
:0E12200081E090E0F8940C941509F894FFCF4B
:10122E00000000004D01B600E50094011601F40027
:02123E000801A5
:00000001FF
